{
  "_format": "hh-sol-artifact-1",
  "contractName": "Accounts",
  "sourceName": "contracts/Accounts.sol",
  "abi": [
    {
      "inputs": [],
      "stateMutability": "nonpayable",
      "type": "constructor"
    },
    {
      "anonymous": false,
      "inputs": [
        {
          "indexed": false,
          "internalType": "address",
          "name": "user",
          "type": "address"
        }
      ],
      "name": "CertificateAdded",
      "type": "event"
    },
    {
      "anonymous": false,
      "inputs": [
        {
          "indexed": false,
          "internalType": "address",
          "name": "user",
          "type": "address"
        }
      ],
      "name": "CertificateVerified",
      "type": "event"
    },
    {
      "anonymous": false,
      "inputs": [
        {
          "indexed": false,
          "internalType": "address",
          "name": "user",
          "type": "address"
        }
      ],
      "name": "DocumentAdded",
      "type": "event"
    },
    {
      "anonymous": false,
      "inputs": [
        {
          "indexed": false,
          "internalType": "address",
          "name": "user",
          "type": "address"
        }
      ],
      "name": "DocumentVerified",
      "type": "event"
    },
    {
      "anonymous": false,
      "inputs": [
        {
          "indexed": false,
          "internalType": "address",
          "name": "user",
          "type": "address"
        }
      ],
      "name": "Registered",
      "type": "event"
    },
    {
      "inputs": [
        {
          "internalType": "string",
          "name": "_name",
          "type": "string"
        },
        {
          "internalType": "string",
          "name": "_description",
          "type": "string"
        },
        {
          "internalType": "string",
          "name": "_certAddress",
          "type": "string"
        }
      ],
      "name": "addCertificate",
      "outputs": [],
      "stateMutability": "nonpayable",
      "type": "function"
    },
    {
      "inputs": [
        {
          "internalType": "string",
          "name": "_name",
          "type": "string"
        },
        {
          "internalType": "string",
          "name": "_description",
          "type": "string"
        },
        {
          "internalType": "string",
          "name": "_docAddress",
          "type": "string"
        }
      ],
      "name": "addDocument",
      "outputs": [],
      "stateMutability": "nonpayable",
      "type": "function"
    },
    {
      "inputs": [],
      "name": "cverifiersCount",
      "outputs": [
        {
          "internalType": "uint256",
          "name": "total",
          "type": "uint256"
        }
      ],
      "stateMutability": "view",
      "type": "function"
    },
    {
      "inputs": [],
      "name": "dcount",
      "outputs": [
        {
          "internalType": "uint256",
          "name": "",
          "type": "uint256"
        }
      ],
      "stateMutability": "view",
      "type": "function"
    },
    {
      "inputs": [],
      "name": "getAccount",
      "outputs": [
        {
          "internalType": "string",
          "name": "name",
          "type": "string"
        },
        {
          "internalType": "string",
          "name": "email",
          "type": "string"
        },
        {
          "internalType": "string",
          "name": "logo",
          "type": "string"
        },
        {
          "internalType": "string",
          "name": "description",
          "type": "string"
        },
        {
          "internalType": "enum Accounts.AccountType",
          "name": "aType",
          "type": "uint8"
        },
        {
          "internalType": "uint256",
          "name": "flag",
          "type": "uint256"
        },
        {
          "internalType": "string[]",
          "name": "skill",
          "type": "string[]"
        }
      ],
      "stateMutability": "view",
      "type": "function"
    },
    {
      "inputs": [],
      "name": "getCVerifierCertCount",
      "outputs": [
        {
          "internalType": "uint256",
          "name": "",
          "type": "uint256"
        }
      ],
      "stateMutability": "view",
      "type": "function"
    },
    {
      "inputs": [],
      "name": "getCVerifierCertificates",
      "outputs": [
        {
          "internalType": "string[]",
          "name": "",
          "type": "string[]"
        },
        {
          "internalType": "string[]",
          "name": "",
          "type": "string[]"
        },
        {
          "internalType": "string[]",
          "name": "",
          "type": "string[]"
        },
        {
          "internalType": "enum Accounts.CertStatus[]",
          "name": "",
          "type": "uint8[]"
        },
        {
          "internalType": "uint256[]",
          "name": "",
          "type": "uint256[]"
        }
      ],
      "stateMutability": "view",
      "type": "function"
    },
    {
      "inputs": [
        {
          "internalType": "string",
          "name": "certAddress",
          "type": "string"
        }
      ],
      "name": "getCertificate",
      "outputs": [
        {
          "internalType": "string",
          "name": "name",
          "type": "string"
        },
        {
          "internalType": "address",
          "name": "requester",
          "type": "address"
        },
        {
          "internalType": "string",
          "name": "description",
          "type": "string"
        },
        {
          "internalType": "enum Accounts.CertStatus",
          "name": "status",
          "type": "uint8"
        }
      ],
      "stateMutability": "view",
      "type": "function"
    },
    {
      "inputs": [
        {
          "internalType": "address",
          "name": "acc",
          "type": "address"
        }
      ],
      "name": "getCounts",
      "outputs": [
        {
          "internalType": "uint256",
          "name": "verified",
          "type": "uint256"
        },
        {
          "internalType": "uint256",
          "name": "rejected",
          "type": "uint256"
        },
        {
          "internalType": "uint256",
          "name": "total",
          "type": "uint256"
        }
      ],
      "stateMutability": "view",
      "type": "function"
    },
    {
      "inputs": [
        {
          "internalType": "string",
          "name": "docAddress",
          "type": "string"
        }
      ],
      "name": "getDocument",
      "outputs": [
        {
          "internalType": "string",
          "name": "name",
          "type": "string"
        },
        {
          "internalType": "address",
          "name": "requester",
          "type": "address"
        },
        {
          "internalType": "string",
          "name": "description",
          "type": "string"
        },
        {
          "internalType": "enum Accounts.DocStatus",
          "name": "status",
          "type": "uint8"
        }
      ],
      "stateMutability": "view",
      "type": "function"
    },
    {
      "inputs": [],
      "name": "getRequesterCertificates",
      "outputs": [
        {
          "internalType": "string[]",
          "name": "",
          "type": "string[]"
        },
        {
          "internalType": "string[]",
          "name": "",
          "type": "string[]"
        },
        {
          "internalType": "string[]",
          "name": "",
          "type": "string[]"
        },
        {
          "internalType": "enum Accounts.CertStatus[]",
          "name": "",
          "type": "uint8[]"
        },
        {
          "internalType": "uint256[]",
          "name": "",
          "type": "uint256[]"
        }
      ],
      "stateMutability": "view",
      "type": "function"
    },
    {
      "inputs": [],
      "name": "getRequesterDocuments",
      "outputs": [
        {
          "internalType": "string[]",
          "name": "",
          "type": "string[]"
        },
        {
          "internalType": "string[]",
          "name": "",
          "type": "string[]"
        },
        {
          "internalType": "string[]",
          "name": "",
          "type": "string[]"
        },
        {
          "internalType": "enum Accounts.DocStatus[]",
          "name": "",
          "type": "uint8[]"
        },
        {
          "internalType": "uint256[]",
          "name": "",
          "type": "uint256[]"
        }
      ],
      "stateMutability": "view",
      "type": "function"
    },
    {
      "inputs": [
        {
          "internalType": "uint256",
          "name": "pIndex",
          "type": "uint256"
        }
      ],
      "name": "getVerifier",
      "outputs": [
        {
          "internalType": "address",
          "name": "verifier",
          "type": "address"
        },
        {
          "internalType": "string",
          "name": "name",
          "type": "string"
        },
        {
          "internalType": "string",
          "name": "email",
          "type": "string"
        },
        {
          "internalType": "string",
          "name": "logo",
          "type": "string"
        },
        {
          "internalType": "string",
          "name": "description",
          "type": "string"
        },
        {
          "internalType": "enum Accounts.AccountType",
          "name": "aType",
          "type": "uint8"
        }
      ],
      "stateMutability": "view",
      "type": "function"
    },
    {
      "inputs": [],
      "name": "getVerifierDocumentCount",
      "outputs": [
        {
          "internalType": "uint256",
          "name": "",
          "type": "uint256"
        }
      ],
      "stateMutability": "view",
      "type": "function"
    },
    {
      "inputs": [],
      "name": "getVerifierDocuments",
      "outputs": [
        {
          "internalType": "string[]",
          "name": "",
          "type": "string[]"
        },
        {
          "internalType": "string[]",
          "name": "",
          "type": "string[]"
        },
        {
          "internalType": "string[]",
          "name": "",
          "type": "string[]"
        },
        {
          "internalType": "enum Accounts.DocStatus[]",
          "name": "",
          "type": "uint8[]"
        },
        {
          "internalType": "uint256[]",
          "name": "",
          "type": "uint256[]"
        }
      ],
      "stateMutability": "view",
      "type": "function"
    },
    {
      "inputs": [
        {
          "internalType": "address",
          "name": "acc",
          "type": "address"
        }
      ],
      "name": "getcertCounts",
      "outputs": [
        {
          "internalType": "uint256",
          "name": "verified",
          "type": "uint256"
        },
        {
          "internalType": "uint256",
          "name": "rejected",
          "type": "uint256"
        },
        {
          "internalType": "uint256",
          "name": "total",
          "type": "uint256"
        }
      ],
      "stateMutability": "view",
      "type": "function"
    },
    {
      "inputs": [
        {
          "internalType": "string",
          "name": "_name",
          "type": "string"
        },
        {
          "internalType": "string",
          "name": "_email",
          "type": "string"
        },
        {
          "internalType": "string",
          "name": "_logo",
          "type": "string"
        },
        {
          "internalType": "string",
          "name": "_description",
          "type": "string"
        },
        {
          "internalType": "enum Accounts.AccountType",
          "name": "_aType",
          "type": "uint8"
        }
      ],
      "name": "register",
      "outputs": [],
      "stateMutability": "nonpayable",
      "type": "function"
    },
    {
      "inputs": [],
      "name": "showSkills",
      "outputs": [
        {
          "internalType": "string[]",
          "name": "",
          "type": "string[]"
        }
      ],
      "stateMutability": "view",
      "type": "function"
    },
    {
      "inputs": [],
      "name": "verifiersCount",
      "outputs": [
        {
          "internalType": "uint256",
          "name": "total",
          "type": "uint256"
        }
      ],
      "stateMutability": "view",
      "type": "function"
    },
    {
      "inputs": [
        {
          "internalType": "string",
          "name": "certAddress",
          "type": "string"
        },
        {
          "internalType": "enum Accounts.CertStatus",
          "name": "status",
          "type": "uint8"
        }
      ],
      "name": "verifyCertificate",
      "outputs": [],
      "stateMutability": "nonpayable",
      "type": "function"
    },
    {
      "inputs": [
        {
          "internalType": "string",
          "name": "docAddress",
          "type": "string"
        },
        {
          "internalType": "enum Accounts.DocStatus",
          "name": "status",
          "type": "uint8"
        }
      ],
      "name": "verifyDocument",
      "outputs": [],
      "stateMutability": "nonpayable",
      "type": "function"
    }
  ],
  "bytecode": "0x608060405234801561001057600080fd5b50336000806101000a81548173ffffffffffffffffffffffffffffffffffffffff021916908373ffffffffffffffffffffffffffffffffffffffff16021790555061585b80620000616000396000f3fe608060405234801561001057600080fd5b50600436106101375760003560e01c80638d9f691e116100b8578063d5497fb21161007c578063d5497fb21461034a578063db613e811461037c578063e4678dfb146103a0578063e4b5ad39146103bc578063ed0f2e75146103d8578063f802bfea1461040b57610137565b80638d9f691e146102b25780638f802d68146102d4578063a2e25056146102f2578063ac9e576014610310578063b5f1b1a51461032c57610137565b80633ca06900116100ff5780633ca06900146101ef5780635b4674041461020d5780637ccb6a641461023f5780637f05c82814610272578063801a93c31461029057610137565b80630280300f1461013c57806316f2542b1461015e57806319b62b26146101805780633561bc271461019e57806336a8915b146101d3575b600080fd5b610144610427565b60405161015595949392919061485a565b60405180910390f35b610166610a1f565b6040516101779594939291906149b6565b60405180910390f35b610188610ffd565b6040516101959190614a3b565b60405180910390f35b6101b860048036038101906101b39190614a96565b61111a565b6040516101ca96959493929190614b96565b60405180910390f35b6101ed60048036038101906101e89190614d48565b6114f9565b005b6101f7611835565b6040516102049190614a3b565b60405180910390f35b61022760048036038101906102229190614e1b565b611842565b60405161023693929190614e48565b60405180910390f35b61025960048036038101906102549190614e7f565b61191d565b6040516102699493929190614ed7565b60405180910390f35b61027a611bac565b6040516102879190614a3b565b60405180910390f35b610298611bb9565b6040516102a995949392919061485a565b60405180910390f35b6102ba612196565b6040516102cb9594939291906149b6565b60405180910390f35b6102dc61278e565b6040516102e99190614a3b565b60405180910390f35b6102fa6128ac565b6040516103079190614a3b565b60405180910390f35b61032a60048036038101906103259190614d48565b6128b2565b005b610334612bee565b6040516103419190614f2a565b60405180910390f35b610364600480360381019061035f9190614e1b565b612d89565b60405161037393929190614e48565b60405180910390f35b610384612e64565b6040516103979796959493929190614f4c565b60405180910390f35b6103ba60048036038101906103b59190615003565b613357565b005b6103d660048036038101906103d19190615084565b6137fb565b005b6103f260048036038101906103ed9190614e7f565b613c30565b604051610402949392919061517e565b60405180910390f35b610425600480360381019061042091906151f6565b613ebf565b005b6060806060806060336001600281111561044457610443614698565b5b600160008373ffffffffffffffffffffffffffffffffffffffff1673ffffffffffffffffffffffffffffffffffffffff16815260200190815260200160002060040160009054906101000a900460ff1660028111156104a6576104a5614698565b5b146104b057600080fd5b600060068054905067ffffffffffffffff8111156104d1576104d0614c1d565b5b60405190808252806020026020018201604052801561050457816020015b60608152602001906001900390816104ef5790505b509050600060068054905067ffffffffffffffff81111561052857610527614c1d565b5b60405190808252806020026020018201604052801561055b57816020015b60608152602001906001900390816105465790505b509050600060068054905067ffffffffffffffff81111561057f5761057e614c1d565b5b6040519080825280602002602001820160405280156105b257816020015b606081526020019060019003908161059d5790505b509050600060068054905067ffffffffffffffff8111156105d6576105d5614c1d565b5b6040519080825280602002602001820160405280156106045781602001602082028036833780820191505090505b509050600060068054905067ffffffffffffffff81111561062857610627614c1d565b5b6040519080825280602002602001820160405280156106565781602001602082028036833780820191505090505b5090506000805b600680549050811015610a01573373ffffffffffffffffffffffffffffffffffffffff166006828154811061069557610694615252565b5b906000526020600020906005020160000160009054906101000a900473ffffffffffffffffffffffffffffffffffffffff1673ffffffffffffffffffffffffffffffffffffffff16036109ee57600681815481106106f6576106f5615252565b5b90600052602060002090600502016002018054610712906152b0565b80601f016020809104026020016040519081016040528092919081815260200182805461073e906152b0565b801561078b5780601f106107605761010080835404028352916020019161078b565b820191906000526020600020905b81548152906001019060200180831161076e57829003601f168201915b50505050508783815181106107a3576107a2615252565b5b6020026020010181905250600681815481106107c2576107c1615252565b5b906000526020600020906005020160030180546107de906152b0565b80601f016020809104026020016040519081016040528092919081815260200182805461080a906152b0565b80156108575780601f1061082c57610100808354040283529160200191610857565b820191906000526020600020905b81548152906001019060200180831161083a57829003601f168201915b505050505086838151811061086f5761086e615252565b5b60200260200101819052506006818154811061088e5761088d615252565b5b906000526020600020906005020160010180546108aa906152b0565b80601f01602080910402602001604051908101604052809291908181526020018280546108d6906152b0565b80156109235780601f106108f857610100808354040283529160200191610923565b820191906000526020600020905b81548152906001019060200180831161090657829003601f168201915b505050505085838151811061093b5761093a615252565b5b60200260200101819052506006818154811061095a57610959615252565b5b906000526020600020906005020160040160009054906101000a900460ff1684838151811061098c5761098b615252565b5b602002602001019060028111156109a6576109a5614698565b5b908160028111156109ba576109b9614698565b5b81525050808383815181106109d2576109d1615252565b5b6020026020010181815250506001826109eb9190615310565b91505b80806109f990615344565b91505061065d565b5085858585859b509b509b509b509b50505050505050509091929394565b60608060608060603360006002811115610a3c57610a3b614698565b5b600160008373ffffffffffffffffffffffffffffffffffffffff1673ffffffffffffffffffffffffffffffffffffffff16815260200190815260200160002060040160009054906101000a900460ff166002811115610a9e57610a9d614698565b5b14610aa857600080fd5b600060058054905067ffffffffffffffff811115610ac957610ac8614c1d565b5b604051908082528060200260200182016040528015610afc57816020015b6060815260200190600190039081610ae75790505b509050600060058054905067ffffffffffffffff811115610b2057610b1f614c1d565b5b604051908082528060200260200182016040528015610b5357816020015b6060815260200190600190039081610b3e5790505b509050600060058054905067ffffffffffffffff811115610b7757610b76614c1d565b5b604051908082528060200260200182016040528015610baa57816020015b6060815260200190600190039081610b955790505b509050600060058054905067ffffffffffffffff811115610bce57610bcd614c1d565b5b604051908082528060200260200182016040528015610bfc5781602001602082028036833780820191505090505b509050600060058054905067ffffffffffffffff811115610c2057610c1f614c1d565b5b604051908082528060200260200182016040528015610c4e5781602001602082028036833780820191505090505b5090506000805b600580549050811015610fdf5760006002811115610c7657610c75614698565b5b60058281548110610c8a57610c89615252565b5b906000526020600020906005020160040160009054906101000a900460ff166002811115610cbb57610cba614698565b5b03610fcc5760058181548110610cd457610cd3615252565b5b90600052602060002090600502016002018054610cf0906152b0565b80601f0160208091040260200160405190810160405280929190818152602001828054610d1c906152b0565b8015610d695780601f10610d3e57610100808354040283529160200191610d69565b820191906000526020600020905b815481529060010190602001808311610d4c57829003601f168201915b5050505050878381518110610d8157610d80615252565b5b602002602001018190525060058181548110610da057610d9f615252565b5b90600052602060002090600502016003018054610dbc906152b0565b80601f0160208091040260200160405190810160405280929190818152602001828054610de8906152b0565b8015610e355780601f10610e0a57610100808354040283529160200191610e35565b820191906000526020600020905b815481529060010190602001808311610e1857829003601f168201915b5050505050868381518110610e4d57610e4c615252565b5b602002602001018190525060058181548110610e6c57610e6b615252565b5b90600052602060002090600502016001018054610e88906152b0565b80601f0160208091040260200160405190810160405280929190818152602001828054610eb4906152b0565b8015610f015780601f10610ed657610100808354040283529160200191610f01565b820191906000526020600020905b815481529060010190602001808311610ee457829003601f168201915b5050505050858381518110610f1957610f18615252565b5b602002602001018190525060058181548110610f3857610f37615252565b5b906000526020600020906005020160040160009054906101000a900460ff16848381518110610f6a57610f69615252565b5b60200260200101906002811115610f8457610f83614698565b5b90816002811115610f9857610f97614698565b5b8152505080838381518110610fb057610faf615252565b5b602002602001018181525050600182610fc99190615310565b91505b8080610fd790615344565b915050610c55565b5085858585859b509b509b509b509b50505050505050509091929394565b60003360028081111561101357611012614698565b5b600160008373ffffffffffffffffffffffffffffffffffffffff1673ffffffffffffffffffffffffffffffffffffffff16815260200190815260200160002060040160009054906101000a900460ff16600281111561107557611074614698565b5b1461107f57600080fd5b6000805b60068054905081101561111157600060028111156110a4576110a3614698565b5b600682815481106110b8576110b7615252565b5b906000526020600020906005020160040160009054906101000a900460ff1660028111156110e9576110e8614698565b5b036110fe576001826110fb9190615310565b91505b808061110990615344565b915050611083565b50809250505090565b60006060806060806000806002888154811061113957611138615252565b5b9060005260206000200160009054906101000a900473ffffffffffffffffffffffffffffffffffffffff169050600160008273ffffffffffffffffffffffffffffffffffffffff1673ffffffffffffffffffffffffffffffffffffffff16815260200190815260200160002060000180546111b3906152b0565b80601f01602080910402602001604051908101604052809291908181526020018280546111df906152b0565b801561122c5780601f106112015761010080835404028352916020019161122c565b820191906000526020600020905b81548152906001019060200180831161120f57829003601f168201915b50505050509550600160008273ffffffffffffffffffffffffffffffffffffffff1673ffffffffffffffffffffffffffffffffffffffff1681526020019081526020016000206001018054611280906152b0565b80601f01602080910402602001604051908101604052809291908181526020018280546112ac906152b0565b80156112f95780601f106112ce576101008083540402835291602001916112f9565b820191906000526020600020905b8154815290600101906020018083116112dc57829003601f168201915b50505050509450600160008273ffffffffffffffffffffffffffffffffffffffff1673ffffffffffffffffffffffffffffffffffffffff168152602001908152602001600020600201805461134d906152b0565b80601f0160208091040260200160405190810160405280929190818152602001828054611379906152b0565b80156113c65780601f1061139b576101008083540402835291602001916113c6565b820191906000526020600020905b8154815290600101906020018083116113a957829003601f168201915b50505050509350600160008273ffffffffffffffffffffffffffffffffffffffff1673ffffffffffffffffffffffffffffffffffffffff168152602001908152602001600020600301805461141a906152b0565b80601f0160208091040260200160405190810160405280929190818152602001828054611446906152b0565b80156114935780601f1061146857610100808354040283529160200191611493565b820191906000526020600020905b81548152906001019060200180831161147657829003601f168201915b50505050509250600160008273ffffffffffffffffffffffffffffffffffffffff1673ffffffffffffffffffffffffffffffffffffffff16815260200190815260200160002060040160009054906101000a900460ff1691508096505091939550919395565b806000805b60058054905081101561159e578260405160200161151c91906153c8565b604051602081830303815290604052805190602001206005828154811061154657611545615252565b5b90600052602060002090600502016001016040516020016115679190615477565b604051602081830303815290604052805190602001200361158b576001915061159e565b808061159690615344565b9150506114fe565b5080156115aa57600080fd5b33600160028111156115bf576115be614698565b5b600160008373ffffffffffffffffffffffffffffffffffffffff1673ffffffffffffffffffffffffffffffffffffffff16815260200190815260200160002060040160009054906101000a900460ff16600281111561162157611620614698565b5b1461162b57600080fd5b7f789ba6f7cf2054e80c94618ed522f3f52ea04a6d85eac2eda1ff5b88c9a0e9a73360405161165a919061548e565b60405180910390a160056040518060a001604052803373ffffffffffffffffffffffffffffffffffffffff168152602001868152602001888152602001878152602001600060028111156116b1576116b0614698565b5b815250908060018154018082558091505060019003906000526020600020906005020160009091909190915060008201518160000160006101000a81548173ffffffffffffffffffffffffffffffffffffffff021916908373ffffffffffffffffffffffffffffffffffffffff16021790555060208201518160010190816117399190615640565b50604082015181600201908161174f9190615640565b5060608201518160030190816117659190615640565b5060808201518160040160006101000a81548160ff0219169083600281111561179157611790614698565b5b021790555050506001600760003373ffffffffffffffffffffffffffffffffffffffff1673ffffffffffffffffffffffffffffffffffffffff168152602001908152602001600020600201546117e79190615310565b600760003373ffffffffffffffffffffffffffffffffffffffff1673ffffffffffffffffffffffffffffffffffffffff16815260200190815260200160002060020181905550505050505050565b6000600380549050905090565b6000806000600760008573ffffffffffffffffffffffffffffffffffffffff1673ffffffffffffffffffffffffffffffffffffffff16815260200190815260200160002060000154600760008673ffffffffffffffffffffffffffffffffffffffff1673ffffffffffffffffffffffffffffffffffffffff16815260200190815260200160002060010154600760008773ffffffffffffffffffffffffffffffffffffffff1673ffffffffffffffffffffffffffffffffffffffff168152602001908152602001600020600201549250925092509193909250565b606060006060600080600090505b600580549050811015611ba4578560405160200161194991906153c8565b604051602081830303815290604052805190602001206005828154811061197357611972615252565b5b90600052602060002090600502016001016040516020016119949190615477565b6040516020818303038152906040528051906020012003611b9157600581815481106119c3576119c2615252565b5b906000526020600020906005020160000160009054906101000a900473ffffffffffffffffffffffffffffffffffffffff16935060058181548110611a0b57611a0a615252565b5b90600052602060002090600502016002018054611a27906152b0565b80601f0160208091040260200160405190810160405280929190818152602001828054611a53906152b0565b8015611aa05780601f10611a7557610100808354040283529160200191611aa0565b820191906000526020600020905b815481529060010190602001808311611a8357829003601f168201915b5050505050945060058181548110611abb57611aba615252565b5b90600052602060002090600502016003018054611ad7906152b0565b80601f0160208091040260200160405190810160405280929190818152602001828054611b03906152b0565b8015611b505780601f10611b2557610100808354040283529160200191611b50565b820191906000526020600020905b815481529060010190602001808311611b3357829003601f168201915b5050505050925060058181548110611b6b57611b6a615252565b5b906000526020600020906005020160040160009054906101000a900460ff169150611ba4565b8080611b9c90615344565b91505061192b565b509193509193565b6000600280549050905090565b606080606080606033600280811115611bd557611bd4614698565b5b600160008373ffffffffffffffffffffffffffffffffffffffff1673ffffffffffffffffffffffffffffffffffffffff16815260200190815260200160002060040160009054906101000a900460ff166002811115611c3757611c36614698565b5b14611c4157600080fd5b600060068054905067ffffffffffffffff811115611c6257611c61614c1d565b5b604051908082528060200260200182016040528015611c9557816020015b6060815260200190600190039081611c805790505b509050600060068054905067ffffffffffffffff811115611cb957611cb8614c1d565b5b604051908082528060200260200182016040528015611cec57816020015b6060815260200190600190039081611cd75790505b509050600060068054905067ffffffffffffffff811115611d1057611d0f614c1d565b5b604051908082528060200260200182016040528015611d4357816020015b6060815260200190600190039081611d2e5790505b509050600060068054905067ffffffffffffffff811115611d6757611d66614c1d565b5b604051908082528060200260200182016040528015611d955781602001602082028036833780820191505090505b509050600060068054905067ffffffffffffffff811115611db957611db8614c1d565b5b604051908082528060200260200182016040528015611de75781602001602082028036833780820191505090505b5090506000805b6006805490508110156121785760006002811115611e0f57611e0e614698565b5b60068281548110611e2357611e22615252565b5b906000526020600020906005020160040160009054906101000a900460ff166002811115611e5457611e53614698565b5b036121655760068181548110611e6d57611e6c615252565b5b90600052602060002090600502016002018054611e89906152b0565b80601f0160208091040260200160405190810160405280929190818152602001828054611eb5906152b0565b8015611f025780601f10611ed757610100808354040283529160200191611f02565b820191906000526020600020905b815481529060010190602001808311611ee557829003601f168201915b5050505050878381518110611f1a57611f19615252565b5b602002602001018190525060068181548110611f3957611f38615252565b5b90600052602060002090600502016003018054611f55906152b0565b80601f0160208091040260200160405190810160405280929190818152602001828054611f81906152b0565b8015611fce5780601f10611fa357610100808354040283529160200191611fce565b820191906000526020600020905b815481529060010190602001808311611fb157829003601f168201915b5050505050868381518110611fe657611fe5615252565b5b60200260200101819052506006818154811061200557612004615252565b5b90600052602060002090600502016001018054612021906152b0565b80601f016020809104026020016040519081016040528092919081815260200182805461204d906152b0565b801561209a5780601f1061206f5761010080835404028352916020019161209a565b820191906000526020600020905b81548152906001019060200180831161207d57829003601f168201915b50505050508583815181106120b2576120b1615252565b5b6020026020010181905250600681815481106120d1576120d0615252565b5b906000526020600020906005020160040160009054906101000a900460ff1684838151811061210357612102615252565b5b6020026020010190600281111561211d5761211c614698565b5b9081600281111561213157612130614698565b5b815250508083838151811061214957612148615252565b5b6020026020010181815250506001826121629190615310565b91505b808061217090615344565b915050611dee565b5085858585859b509b509b509b509b50505050505050509091929394565b606080606080606033600160028111156121b3576121b2614698565b5b600160008373ffffffffffffffffffffffffffffffffffffffff1673ffffffffffffffffffffffffffffffffffffffff16815260200190815260200160002060040160009054906101000a900460ff16600281111561221557612214614698565b5b1461221f57600080fd5b600060058054905067ffffffffffffffff8111156122405761223f614c1d565b5b60405190808252806020026020018201604052801561227357816020015b606081526020019060019003908161225e5790505b509050600060058054905067ffffffffffffffff81111561229757612296614c1d565b5b6040519080825280602002602001820160405280156122ca57816020015b60608152602001906001900390816122b55790505b509050600060058054905067ffffffffffffffff8111156122ee576122ed614c1d565b5b60405190808252806020026020018201604052801561232157816020015b606081526020019060019003908161230c5790505b509050600060058054905067ffffffffffffffff81111561234557612344614c1d565b5b6040519080825280602002602001820160405280156123735781602001602082028036833780820191505090505b509050600060058054905067ffffffffffffffff81111561239757612396614c1d565b5b6040519080825280602002602001820160405280156123c55781602001602082028036833780820191505090505b5090506000805b600580549050811015612770573373ffffffffffffffffffffffffffffffffffffffff166005828154811061240457612403615252565b5b906000526020600020906005020160000160009054906101000a900473ffffffffffffffffffffffffffffffffffffffff1673ffffffffffffffffffffffffffffffffffffffff160361275d576005818154811061246557612464615252565b5b90600052602060002090600502016002018054612481906152b0565b80601f01602080910402602001604051908101604052809291908181526020018280546124ad906152b0565b80156124fa5780601f106124cf576101008083540402835291602001916124fa565b820191906000526020600020905b8154815290600101906020018083116124dd57829003601f168201915b505050505087838151811061251257612511615252565b5b60200260200101819052506005818154811061253157612530615252565b5b9060005260206000209060050201600301805461254d906152b0565b80601f0160208091040260200160405190810160405280929190818152602001828054612579906152b0565b80156125c65780601f1061259b576101008083540402835291602001916125c6565b820191906000526020600020905b8154815290600101906020018083116125a957829003601f168201915b50505050508683815181106125de576125dd615252565b5b6020026020010181905250600581815481106125fd576125fc615252565b5b90600052602060002090600502016001018054612619906152b0565b80601f0160208091040260200160405190810160405280929190818152602001828054612645906152b0565b80156126925780601f1061266757610100808354040283529160200191612692565b820191906000526020600020905b81548152906001019060200180831161267557829003601f168201915b50505050508583815181106126aa576126a9615252565b5b6020026020010181905250600581815481106126c9576126c8615252565b5b906000526020600020906005020160040160009054906101000a900460ff168483815181106126fb576126fa615252565b5b6020026020010190600281111561271557612714614698565b5b9081600281111561272957612728614698565b5b815250508083838151811061274157612740615252565b5b60200260200101818152505060018261275a9190615310565b91505b808061276890615344565b9150506123cc565b5085858585859b509b509b509b509b50505050505050509091929394565b600033600060028111156127a5576127a4614698565b5b600160008373ffffffffffffffffffffffffffffffffffffffff1673ffffffffffffffffffffffffffffffffffffffff16815260200190815260200160002060040160009054906101000a900460ff16600281111561280757612806614698565b5b1461281157600080fd5b6000805b6005805490508110156128a3576000600281111561283657612835614698565b5b6005828154811061284a57612849615252565b5b906000526020600020906005020160040160009054906101000a900460ff16600281111561287b5761287a614698565b5b036128905760018261288d9190615310565b91505b808061289b90615344565b915050612815565b50809250505090565b60045481565b806000805b60058054905081101561295757826040516020016128d591906153c8565b60405160208183030381529060405280519060200120600582815481106128ff576128fe615252565b5b90600052602060002090600502016001016040516020016129209190615477565b60405160208183030381529060405280519060200120036129445760019150612957565b808061294f90615344565b9150506128b7565b50801561296357600080fd5b336001600281111561297857612977614698565b5b600160008373ffffffffffffffffffffffffffffffffffffffff1673ffffffffffffffffffffffffffffffffffffffff16815260200190815260200160002060040160009054906101000a900460ff1660028111156129da576129d9614698565b5b146129e457600080fd5b7f6697c31d0c16a2d80cf5bde8e7ed12c5fb8d8c5ca0f1364a9caa0a56b39c545733604051612a13919061548e565b60405180910390a160066040518060a001604052803373ffffffffffffffffffffffffffffffffffffffff16815260200186815260200188815260200187815260200160006002811115612a6a57612a69614698565b5b815250908060018154018082558091505060019003906000526020600020906005020160009091909190915060008201518160000160006101000a81548173ffffffffffffffffffffffffffffffffffffffff021916908373ffffffffffffffffffffffffffffffffffffffff1602179055506020820151816001019081612af29190615640565b506040820151816002019081612b089190615640565b506060820151816003019081612b1e9190615640565b5060808201518160040160006101000a81548160ff02191690836002811115612b4a57612b49614698565b5b021790555050506001600860003373ffffffffffffffffffffffffffffffffffffffff1673ffffffffffffffffffffffffffffffffffffffff16815260200190815260200160002060020154612ba09190615310565b600860003373ffffffffffffffffffffffffffffffffffffffff1673ffffffffffffffffffffffffffffffffffffffff16815260200190815260200160002060020181905550505050505050565b60603360016002811115612c0557612c04614698565b5b600160008373ffffffffffffffffffffffffffffffffffffffff1673ffffffffffffffffffffffffffffffffffffffff16815260200190815260200160002060040160009054906101000a900460ff166002811115612c6757612c66614698565b5b14612c7157600080fd5b600160003373ffffffffffffffffffffffffffffffffffffffff1673ffffffffffffffffffffffffffffffffffffffff168152602001908152602001600020600501805480602002602001604051908101604052809291908181526020016000905b82821015612d7f578382906000526020600020018054612cf2906152b0565b80601f0160208091040260200160405190810160405280929190818152602001828054612d1e906152b0565b8015612d6b5780601f10612d4057610100808354040283529160200191612d6b565b820191906000526020600020905b815481529060010190602001808311612d4e57829003601f168201915b505050505081526020019060010190612cd3565b5050505091505090565b6000806000600860008573ffffffffffffffffffffffffffffffffffffffff1673ffffffffffffffffffffffffffffffffffffffff16815260200190815260200160002060000154600860008673ffffffffffffffffffffffffffffffffffffffff1673ffffffffffffffffffffffffffffffffffffffff16815260200190815260200160002060010154600860008773ffffffffffffffffffffffffffffffffffffffff1673ffffffffffffffffffffffffffffffffffffffff168152602001908152602001600020600201549250925092509193909250565b6060806060806000806060600160003373ffffffffffffffffffffffffffffffffffffffff1673ffffffffffffffffffffffffffffffffffffffff1681526020019081526020016000206000018054612ebc906152b0565b80601f0160208091040260200160405190810160405280929190818152602001828054612ee8906152b0565b8015612f355780601f10612f0a57610100808354040283529160200191612f35565b820191906000526020600020905b815481529060010190602001808311612f1857829003601f168201915b50505050509650600160003373ffffffffffffffffffffffffffffffffffffffff1673ffffffffffffffffffffffffffffffffffffffff1681526020019081526020016000206001018054612f89906152b0565b80601f0160208091040260200160405190810160405280929190818152602001828054612fb5906152b0565b80156130025780601f10612fd757610100808354040283529160200191613002565b820191906000526020600020905b815481529060010190602001808311612fe557829003601f168201915b50505050509550600160003373ffffffffffffffffffffffffffffffffffffffff1673ffffffffffffffffffffffffffffffffffffffff1681526020019081526020016000206002018054613056906152b0565b80601f0160208091040260200160405190810160405280929190818152602001828054613082906152b0565b80156130cf5780601f106130a4576101008083540402835291602001916130cf565b820191906000526020600020905b8154815290600101906020018083116130b257829003601f168201915b50505050509450600160003373ffffffffffffffffffffffffffffffffffffffff1673ffffffffffffffffffffffffffffffffffffffff1681526020019081526020016000206003018054613123906152b0565b80601f016020809104026020016040519081016040528092919081815260200182805461314f906152b0565b801561319c5780601f106131715761010080835404028352916020019161319c565b820191906000526020600020905b81548152906001019060200180831161317f57829003601f168201915b50505050509350600160003373ffffffffffffffffffffffffffffffffffffffff1673ffffffffffffffffffffffffffffffffffffffff16815260200190815260200160002060040160009054906101000a900460ff169250600160003373ffffffffffffffffffffffffffffffffffffffff1673ffffffffffffffffffffffffffffffffffffffff168152602001908152602001600020600601549150600160003373ffffffffffffffffffffffffffffffffffffffff1673ffffffffffffffffffffffffffffffffffffffff168152602001908152602001600020600501805480602002602001604051908101604052809291908181526020016000905b828210156133485783829060005260206000200180546132bb906152b0565b80601f01602080910402602001604051908101604052809291908181526020018280546132e7906152b0565b80156133345780601f1061330957610100808354040283529160200191613334565b820191906000526020600020905b81548152906001019060200180831161331757829003601f168201915b50505050508152602001906001019061329c565b50505050905090919293949596565b336000600281111561336c5761336b614698565b5b600160008373ffffffffffffffffffffffffffffffffffffffff1673ffffffffffffffffffffffffffffffffffffffff16815260200190815260200160002060040160009054906101000a900460ff1660028111156133ce576133cd614698565b5b146133d857600080fd5b60005b6005805490508110156137f557836040516020016133f991906153c8565b604051602081830303815290604052805190602001206005828154811061342357613422615252565b5b90600052602060002090600502016001016040516020016134449190615477565b604051602081830303815290604052805190602001201480156134bd57506000600281111561347657613475614698565b5b6005828154811061348a57613489615252565b5b906000526020600020906005020160040160009054906101000a900460ff1660028111156134bb576134ba614698565b5b145b156137e2577f486862e915c1394d45f1072ee920f5ce06606f2b7453903ab5ef67bd212ab03a336040516134f1919061548e565b60405180910390a160028081111561350c5761350b614698565b5b83600281111561351f5761351e614698565b5b03613644576001600760006005848154811061353e5761353d615252565b5b906000526020600020906005020160000160009054906101000a900473ffffffffffffffffffffffffffffffffffffffff1673ffffffffffffffffffffffffffffffffffffffff1673ffffffffffffffffffffffffffffffffffffffff168152602001908152602001600020600101546135b89190615310565b60076000600584815481106135d0576135cf615252565b5b906000526020600020906005020160000160009054906101000a900473ffffffffffffffffffffffffffffffffffffffff1673ffffffffffffffffffffffffffffffffffffffff1673ffffffffffffffffffffffffffffffffffffffff168152602001908152602001600020600101819055505b6001600281111561365857613657614698565b5b83600281111561366b5761366a614698565b5b03613790576001600760006005848154811061368a57613689615252565b5b906000526020600020906005020160000160009054906101000a900473ffffffffffffffffffffffffffffffffffffffff1673ffffffffffffffffffffffffffffffffffffffff1673ffffffffffffffffffffffffffffffffffffffff168152602001908152602001600020600001546137049190615310565b600760006005848154811061371c5761371b615252565b5b906000526020600020906005020160000160009054906101000a900473ffffffffffffffffffffffffffffffffffffffff1673ffffffffffffffffffffffffffffffffffffffff1673ffffffffffffffffffffffffffffffffffffffff168152602001908152602001600020600001819055505b82600582815481106137a5576137a4615252565b5b906000526020600020906005020160040160006101000a81548160ff021916908360028111156137d8576137d7614698565b5b02179055506137f5565b80806137ed90615344565b9150506133db565b50505050565b808160018060003373ffffffffffffffffffffffffffffffffffffffff1673ffffffffffffffffffffffffffffffffffffffff168152602001908152602001600020600601540361384b57600080fd5b7f2d3734a8e47ac8316e500ac231c90a6e1848ca2285f40d07eaa52005e4b3a0e93360405161387a919061548e565b60405180910390a160606040518060e001604052808981526020018881526020018781526020018681526020018560028111156138ba576138b9614698565b5b81526020018281526020016001815250600160003373ffffffffffffffffffffffffffffffffffffffff1673ffffffffffffffffffffffffffffffffffffffff168152602001908152602001600020600082015181600001908161391e9190615640565b5060208201518160010190816139349190615640565b50604082015181600201908161394a9190615640565b5060608201518160030190816139609190615640565b5060808201518160040160006101000a81548160ff0219169083600281111561398c5761398b614698565b5b021790555060a08201518160050190805190602001906139ad929190614440565b5060c08201518160060155905050506002808111156139cf576139ce614698565b5b8160028111156139e2576139e1614698565b5b03613af1576000805b600380549050811015613a855760038181548110613a0c57613a0b615252565b5b9060005260206000200160009054906101000a900473ffffffffffffffffffffffffffffffffffffffff1673ffffffffffffffffffffffffffffffffffffffff163373ffffffffffffffffffffffffffffffffffffffff1603613a725760019150613a85565b8080613a7d90615344565b9150506139eb565b5080613aef576003339080600181540180825580915050600190039060005260206000200160009091909190916101000a81548173ffffffffffffffffffffffffffffffffffffffff021916908373ffffffffffffffffffffffffffffffffffffffff1602179055505b505b5060006002811115613b0657613b05614698565b5b816002811115613b1957613b18614698565b5b03613c28576000805b600280549050811015613bbc5760028181548110613b4357613b42615252565b5b9060005260206000200160009054906101000a900473ffffffffffffffffffffffffffffffffffffffff1673ffffffffffffffffffffffffffffffffffffffff163373ffffffffffffffffffffffffffffffffffffffff1603613ba95760019150613bbc565b8080613bb490615344565b915050613b22565b5080613c26576002339080600181540180825580915050600190039060005260206000200160009091909190916101000a81548173ffffffffffffffffffffffffffffffffffffffff021916908373ffffffffffffffffffffffffffffffffffffffff1602179055505b505b505050505050565b606060006060600080600090505b600680549050811015613eb75785604051602001613c5c91906153c8565b6040516020818303038152906040528051906020012060068281548110613c8657613c85615252565b5b9060005260206000209060050201600101604051602001613ca79190615477565b6040516020818303038152906040528051906020012003613ea45760068181548110613cd657613cd5615252565b5b906000526020600020906005020160000160009054906101000a900473ffffffffffffffffffffffffffffffffffffffff16935060068181548110613d1e57613d1d615252565b5b90600052602060002090600502016002018054613d3a906152b0565b80601f0160208091040260200160405190810160405280929190818152602001828054613d66906152b0565b8015613db35780601f10613d8857610100808354040283529160200191613db3565b820191906000526020600020905b815481529060010190602001808311613d9657829003601f168201915b5050505050945060068181548110613dce57613dcd615252565b5b90600052602060002090600502016003018054613dea906152b0565b80601f0160208091040260200160405190810160405280929190818152602001828054613e16906152b0565b8015613e635780601f10613e3857610100808354040283529160200191613e63565b820191906000526020600020905b815481529060010190602001808311613e4657829003601f168201915b5050505050925060068181548110613e7e57613e7d615252565b5b906000526020600020906005020160040160009054906101000a900460ff169150613eb7565b8080613eaf90615344565b915050613c3e565b509193509193565b33600280811115613ed357613ed2614698565b5b600160008373ffffffffffffffffffffffffffffffffffffffff1673ffffffffffffffffffffffffffffffffffffffff16815260200190815260200160002060040160009054906101000a900460ff166002811115613f3557613f34614698565b5b14613f3f57600080fd5b60005b60068054905081101561443a5783604051602001613f6091906153c8565b6040516020818303038152906040528051906020012060068281548110613f8a57613f89615252565b5b9060005260206000209060050201600101604051602001613fab9190615477565b60405160208183030381529060405280519060200120148015614024575060006002811115613fdd57613fdc614698565b5b60068281548110613ff157613ff0615252565b5b906000526020600020906005020160040160009054906101000a900460ff16600281111561402257614021614698565b5b145b15614427577f1b60cb0f1264b7afc308466532b70c887590d8a45b3fc232d8a9c51a8d17aacc33604051614058919061548e565b60405180910390a160028081111561407357614072614698565b5b83600281111561408657614085614698565b5b036141ab57600160086000600684815481106140a5576140a4615252565b5b906000526020600020906005020160000160009054906101000a900473ffffffffffffffffffffffffffffffffffffffff1673ffffffffffffffffffffffffffffffffffffffff1673ffffffffffffffffffffffffffffffffffffffff1681526020019081526020016000206001015461411f9190615310565b600860006006848154811061413757614136615252565b5b906000526020600020906005020160000160009054906101000a900473ffffffffffffffffffffffffffffffffffffffff1673ffffffffffffffffffffffffffffffffffffffff1673ffffffffffffffffffffffffffffffffffffffff168152602001908152602001600020600101819055505b600160028111156141bf576141be614698565b5b8360028111156141d2576141d1614698565b5b036143d557600160086000600684815481106141f1576141f0615252565b5b906000526020600020906005020160000160009054906101000a900473ffffffffffffffffffffffffffffffffffffffff1673ffffffffffffffffffffffffffffffffffffffff1673ffffffffffffffffffffffffffffffffffffffff1681526020019081526020016000206000015461426b9190615310565b600860006006848154811061428357614282615252565b5b906000526020600020906005020160000160009054906101000a900473ffffffffffffffffffffffffffffffffffffffff1673ffffffffffffffffffffffffffffffffffffffff1673ffffffffffffffffffffffffffffffffffffffff16815260200190815260200160002060000181905550600160006006838154811061430e5761430d615252565b5b906000526020600020906005020160000160009054906101000a900473ffffffffffffffffffffffffffffffffffffffff1673ffffffffffffffffffffffffffffffffffffffff1673ffffffffffffffffffffffffffffffffffffffff1681526020019081526020016000206005016006828154811061439157614390615252565b5b90600052602060002090600502016002019080600181540180825580915050600190039060005260206000200160009091909190915090816143d3919061573d565b505b82600682815481106143ea576143e9615252565b5b906000526020600020906005020160040160006101000a81548160ff0219169083600281111561441d5761441c614698565b5b021790555061443a565b808061443290615344565b915050613f42565b50505050565b828054828255906000526020600020908101928215614488579160200282015b828111156144875782518290816144779190615640565b5091602001919060010190614460565b5b5090506144959190614499565b5090565b5b808211156144b957600081816144b091906144bd565b5060010161449a565b5090565b5080546144c9906152b0565b6000825580601f106144db57506144fa565b601f0160209004906000526020600020908101906144f991906144fd565b5b50565b5b808211156145165760008160009055506001016144fe565b5090565b600081519050919050565b600082825260208201905092915050565b6000819050602082019050919050565b600081519050919050565b600082825260208201905092915050565b60005b83811015614580578082015181840152602081019050614565565b60008484015250505050565b6000601f19601f8301169050919050565b60006145a882614546565b6145b28185614551565b93506145c2818560208601614562565b6145cb8161458c565b840191505092915050565b60006145e2838361459d565b905092915050565b6000602082019050919050565b60006146028261451a565b61460c8185614525565b93508360208202850161461e85614536565b8060005b8581101561465a578484038952815161463b85826145d6565b9450614646836145ea565b925060208a01995050600181019050614622565b50829750879550505050505092915050565b600081519050919050565b600082825260208201905092915050565b6000819050602082019050919050565b7f4e487b7100000000000000000000000000000000000000000000000000000000600052602160045260246000fd5b600381106146d8576146d7614698565b5b50565b60008190506146e9826146c7565b919050565b60006146f9826146db565b9050919050565b614709816146ee565b82525050565b600061471b8383614700565b60208301905092915050565b6000602082019050919050565b600061473f8261466c565b6147498185614677565b935061475483614688565b8060005b8381101561478557815161476c888261470f565b975061477783614727565b925050600181019050614758565b5085935050505092915050565b600081519050919050565b600082825260208201905092915050565b6000819050602082019050919050565b6000819050919050565b6147d1816147be565b82525050565b60006147e383836147c8565b60208301905092915050565b6000602082019050919050565b600061480782614792565b614811818561479d565b935061481c836147ae565b8060005b8381101561484d57815161483488826147d7565b975061483f836147ef565b925050600181019050614820565b5085935050505092915050565b600060a082019050818103600083015261487481886145f7565b9050818103602083015261488881876145f7565b9050818103604083015261489c81866145f7565b905081810360608301526148b08185614734565b905081810360808301526148c481846147fc565b90509695505050505050565b600081519050919050565b6000819050602082019050919050565b600381106148fc576148fb614698565b5b50565b600081905061490d826148eb565b919050565b600061491d826148ff565b9050919050565b61492d81614912565b82525050565b600061493f8383614924565b60208301905092915050565b6000602082019050919050565b6000614963826148d0565b61496d8185614677565b9350614978836148db565b8060005b838110156149a95781516149908882614933565b975061499b8361494b565b92505060018101905061497c565b5085935050505092915050565b600060a08201905081810360008301526149d081886145f7565b905081810360208301526149e481876145f7565b905081810360408301526149f881866145f7565b90508181036060830152614a0c8185614958565b90508181036080830152614a2081846147fc565b90509695505050505050565b614a35816147be565b82525050565b6000602082019050614a506000830184614a2c565b92915050565b6000604051905090565b600080fd5b600080fd5b614a73816147be565b8114614a7e57600080fd5b50565b600081359050614a9081614a6a565b92915050565b600060208284031215614aac57614aab614a60565b5b6000614aba84828501614a81565b91505092915050565b600073ffffffffffffffffffffffffffffffffffffffff82169050919050565b6000614aee82614ac3565b9050919050565b614afe81614ae3565b82525050565b600082825260208201905092915050565b6000614b2082614546565b614b2a8185614b04565b9350614b3a818560208601614562565b614b438161458c565b840191505092915050565b60038110614b5f57614b5e614698565b5b50565b6000819050614b7082614b4e565b919050565b6000614b8082614b62565b9050919050565b614b9081614b75565b82525050565b600060c082019050614bab6000830189614af5565b8181036020830152614bbd8188614b15565b90508181036040830152614bd18187614b15565b90508181036060830152614be58186614b15565b90508181036080830152614bf98185614b15565b9050614c0860a0830184614b87565b979650505050505050565b600080fd5b600080fd5b7f4e487b7100000000000000000000000000000000000000000000000000000000600052604160045260246000fd5b614c558261458c565b810181811067ffffffffffffffff82111715614c7457614c73614c1d565b5b80604052505050565b6000614c87614a56565b9050614c938282614c4c565b919050565b600067ffffffffffffffff821115614cb357614cb2614c1d565b5b614cbc8261458c565b9050602081019050919050565b82818337600083830152505050565b6000614ceb614ce684614c98565b614c7d565b905082815260208101848484011115614d0757614d06614c18565b5b614d12848285614cc9565b509392505050565b600082601f830112614d2f57614d2e614c13565b5b8135614d3f848260208601614cd8565b91505092915050565b600080600060608486031215614d6157614d60614a60565b5b600084013567ffffffffffffffff811115614d7f57614d7e614a65565b5b614d8b86828701614d1a565b935050602084013567ffffffffffffffff811115614dac57614dab614a65565b5b614db886828701614d1a565b925050604084013567ffffffffffffffff811115614dd957614dd8614a65565b5b614de586828701614d1a565b9150509250925092565b614df881614ae3565b8114614e0357600080fd5b50565b600081359050614e1581614def565b92915050565b600060208284031215614e3157614e30614a60565b5b6000614e3f84828501614e06565b91505092915050565b6000606082019050614e5d6000830186614a2c565b614e6a6020830185614a2c565b614e776040830184614a2c565b949350505050565b600060208284031215614e9557614e94614a60565b5b600082013567ffffffffffffffff811115614eb357614eb2614a65565b5b614ebf84828501614d1a565b91505092915050565b614ed181614912565b82525050565b60006080820190508181036000830152614ef18187614b15565b9050614f006020830186614af5565b8181036040830152614f128185614b15565b9050614f216060830184614ec8565b95945050505050565b60006020820190508181036000830152614f4481846145f7565b905092915050565b600060e0820190508181036000830152614f66818a614b15565b90508181036020830152614f7a8189614b15565b90508181036040830152614f8e8188614b15565b90508181036060830152614fa28187614b15565b9050614fb16080830186614b87565b614fbe60a0830185614a2c565b81810360c0830152614fd081846145f7565b905098975050505050505050565b60038110614feb57600080fd5b50565b600081359050614ffd81614fde565b92915050565b6000806040838503121561501a57615019614a60565b5b600083013567ffffffffffffffff81111561503857615037614a65565b5b61504485828601614d1a565b925050602061505585828601614fee565b9150509250929050565b6003811061506c57600080fd5b50565b60008135905061507e8161505f565b92915050565b600080600080600060a086880312156150a05761509f614a60565b5b600086013567ffffffffffffffff8111156150be576150bd614a65565b5b6150ca88828901614d1a565b955050602086013567ffffffffffffffff8111156150eb576150ea614a65565b5b6150f788828901614d1a565b945050604086013567ffffffffffffffff81111561511857615117614a65565b5b61512488828901614d1a565b935050606086013567ffffffffffffffff81111561514557615144614a65565b5b61515188828901614d1a565b92505060806151628882890161506f565b9150509295509295909350565b615178816146ee565b82525050565b600060808201905081810360008301526151988187614b15565b90506151a76020830186614af5565b81810360408301526151b98185614b15565b90506151c8606083018461516f565b95945050505050565b600381106151de57600080fd5b50565b6000813590506151f0816151d1565b92915050565b6000806040838503121561520d5761520c614a60565b5b600083013567ffffffffffffffff81111561522b5761522a614a65565b5b61523785828601614d1a565b9250506020615248858286016151e1565b9150509250929050565b7f4e487b7100000000000000000000000000000000000000000000000000000000600052603260045260246000fd5b7f4e487b7100000000000000000000000000000000000000000000000000000000600052602260045260246000fd5b600060028204905060018216806152c857607f821691505b6020821081036152db576152da615281565b5b50919050565b7f4e487b7100000000000000000000000000000000000000000000000000000000600052601160045260246000fd5b600061531b826147be565b9150615326836147be565b925082820190508082111561533e5761533d6152e1565b5b92915050565b600061534f826147be565b91507fffffffffffffffffffffffffffffffffffffffffffffffffffffffffffffffff8203615381576153806152e1565b5b600182019050919050565b600081905092915050565b60006153a282614546565b6153ac818561538c565b93506153bc818560208601614562565b80840191505092915050565b60006153d48284615397565b915081905092915050565b60008190508160005260206000209050919050565b60008154615401816152b0565b61540b818661538c565b94506001821660008114615426576001811461543b5761546e565b60ff198316865281151582028601935061546e565b615444856153df565b60005b8381101561546657815481890152600182019150602081019050615447565b838801955050505b50505092915050565b600061548382846153f4565b915081905092915050565b60006020820190506154a36000830184614af5565b92915050565b60006020601f8301049050919050565b600082821b905092915050565b6000600883026154f67fffffffffffffffffffffffffffffffffffffffffffffffffffffffffffffffff826154b9565b61550086836154b9565b95508019841693508086168417925050509392505050565b6000819050919050565b600061553d615538615533846147be565b615518565b6147be565b9050919050565b6000819050919050565b61555783615522565b61556b61556382615544565b8484546154c6565b825550505050565b600090565b615580615573565b61558b81848461554e565b505050565b5b818110156155af576155a4600082615578565b600181019050615591565b5050565b601f8211156155f4576155c5816153df565b6155ce846154a9565b810160208510156155dd578190505b6155f16155e9856154a9565b830182615590565b50505b505050565b600082821c905092915050565b6000615617600019846008026155f9565b1980831691505092915050565b60006156308383615606565b9150826002028217905092915050565b61564982614546565b67ffffffffffffffff81111561566257615661614c1d565b5b61566c82546152b0565b6156778282856155b3565b600060209050601f8311600181146156aa5760008415615698578287015190505b6156a28582615624565b86555061570a565b601f1984166156b8866153df565b60005b828110156156e0578489015182556001820191506020850194506020810190506156bb565b868310156156fd57848901516156f9601f891682615606565b8355505b6001600288020188555050505b505050505050565b600081549050615721816152b0565b9050919050565b60008190508160005260206000209050919050565b81810361574b575050615823565b61575482615712565b67ffffffffffffffff81111561576d5761576c614c1d565b5b61577782546152b0565b6157828282856155b3565b6000601f8311600181146157b1576000841561579f578287015490505b6157a98582615624565b86555061581c565b601f1984166157bf87615728565b96506157ca866153df565b60005b828110156157f2578489015482556001820191506001850194506020810190506157cd565b8683101561580f578489015461580b601f891682615606565b8355505b6001600288020188555050505b5050505050505b56fea26469706673582212204eb82b415e392af12b5dae83ff09fb04256389906f278f1eaa26a745c0827e6264736f6c63430008110033",
  "linkReferences": {},
  "deployedLinkReferences": {}
}